{
  "_format": "hh-sol-artifact-1",
  "contractName": "PoolDeployer",
  "sourceName": "src/PoolDeployer.sol",
  "abi": [
    {
      "inputs": [
        {
          "internalType": "address",
          "name": "_owner",
          "type": "address"
        },
        {
          "internalType": "address",
          "name": "_flare",
          "type": "address"
        }
      ],
      "stateMutability": "nonpayable",
      "type": "constructor"
    },
    {
      "anonymous": false,
      "inputs": [
        {
          "indexed": true,
          "internalType": "string",
          "name": "token1",
          "type": "string"
        },
        {
          "indexed": true,
          "internalType": "string",
          "name": "token2",
          "type": "string"
        },
        {
          "indexed": false,
          "internalType": "address",
          "name": "pool",
          "type": "address"
        }
      ],
      "name": "PoolCreated",
      "type": "event"
    },
    {
      "inputs": [
        {
          "internalType": "address",
          "name": "_token1",
          "type": "address"
        },
        {
          "internalType": "address",
          "name": "_token2",
          "type": "address"
        }
      ],
      "name": "createPool",
      "outputs": [
        {
          "internalType": "contract LiquidityPool",
          "name": "",
          "type": "address"
        },
        {
          "internalType": "address",
          "name": "",
          "type": "address"
        }
      ],
      "stateMutability": "nonpayable",
      "type": "function"
    },
    {
      "inputs": [],
      "name": "flare",
      "outputs": [
        {
          "internalType": "contract Flare",
          "name": "",
          "type": "address"
        }
      ],
      "stateMutability": "view",
      "type": "function"
    },
    {
      "inputs": [
        {
          "internalType": "address",
          "name": "",
          "type": "address"
        },
        {
          "internalType": "address",
          "name": "",
          "type": "address"
        }
      ],
      "name": "getPool",
      "outputs": [
        {
          "internalType": "address",
          "name": "",
          "type": "address"
        }
      ],
      "stateMutability": "view",
      "type": "function"
    },
    {
      "inputs": [],
      "name": "owner",
      "outputs": [
        {
          "internalType": "address",
          "name": "",
          "type": "address"
        }
      ],
      "stateMutability": "view",
      "type": "function"
    }
  ],
  "bytecode": "0x60806040523480156200001157600080fd5b5060405162002ead38038062002ead83398181016040528101906200003791906200012b565b81600160006101000a81548173ffffffffffffffffffffffffffffffffffffffff021916908373ffffffffffffffffffffffffffffffffffffffff16021790555080600260006101000a81548173ffffffffffffffffffffffffffffffffffffffff021916908373ffffffffffffffffffffffffffffffffffffffff160217905550505062000172565b600080fd5b600073ffffffffffffffffffffffffffffffffffffffff82169050919050565b6000620000f382620000c6565b9050919050565b6200010581620000e6565b81146200011157600080fd5b50565b6000815190506200012581620000fa565b92915050565b60008060408385031215620001455762000144620000c1565b5b6000620001558582860162000114565b9250506020620001688582860162000114565b9150509250929050565b612d2b80620001826000396000f3fe60806040523480156200001157600080fd5b5060043610620000525760003560e01c8063531aa03e14620000575780638da5cb5b146200008d578063c196ca8c14620000af578063e343361514620000d1575b600080fd5b6200007560048036038101906200006f91906200091a565b62000108565b60405162000084919062000972565b60405180910390f35b620000976200014a565b604051620000a6919062000972565b60405180910390f35b620000b962000170565b604051620000c89190620009fa565b60405180910390f35b620000ef6004803603810190620000e991906200091a565b62000196565b604051620000ff92919062000a3c565b60405180910390f35b60006020528160005260406000206020528060005260406000206000915091509054906101000a900473ffffffffffffffffffffffffffffffffffffffff1681565b600160009054906101000a900473ffffffffffffffffffffffffffffffffffffffff1681565b600260009054906101000a900473ffffffffffffffffffffffffffffffffffffffff1681565b600080600073ffffffffffffffffffffffffffffffffffffffff166000808673ffffffffffffffffffffffffffffffffffffffff1673ffffffffffffffffffffffffffffffffffffffff16815260200190815260200160002060008573ffffffffffffffffffffffffffffffffffffffff1673ffffffffffffffffffffffffffffffffffffffff16815260200190815260200160002060009054906101000a900473ffffffffffffffffffffffffffffffffffffffff1673ffffffffffffffffffffffffffffffffffffffff16148015620003385750600073ffffffffffffffffffffffffffffffffffffffff166000808573ffffffffffffffffffffffffffffffffffffffff1673ffffffffffffffffffffffffffffffffffffffff16815260200190815260200160002060008673ffffffffffffffffffffffffffffffffffffffff1673ffffffffffffffffffffffffffffffffffffffff16815260200190815260200160002060009054906101000a900473ffffffffffffffffffffffffffffffffffffffff1673ffffffffffffffffffffffffffffffffffffffff16145b6200037a576040517f08c379a0000000000000000000000000000000000000000000000000000000008152600401620003719062000aca565b60405180910390fd5b8273ffffffffffffffffffffffffffffffffffffffff168473ffffffffffffffffffffffffffffffffffffffff1603620003eb576040517f08c379a0000000000000000000000000000000000000000000000000000000008152600401620003e29062000b62565b60405180910390fd5b600073ffffffffffffffffffffffffffffffffffffffff168473ffffffffffffffffffffffffffffffffffffffff1614158015620004565750600073ffffffffffffffffffffffffffffffffffffffff168373ffffffffffffffffffffffffffffffffffffffff1614155b62000498576040517f08c379a00000000000000000000000000000000000000000000000000000000081526004016200048f9062000bd4565b60405180910390fd5b60008484600160009054906101000a900473ffffffffffffffffffffffffffffffffffffffff16600260009054906101000a900473ffffffffffffffffffffffffffffffffffffffff16604051620004f09062000893565b620004ff949392919062000bf6565b604051809103906000f0801580156200051c573d6000803e3d6000fd5b509050600260009054906101000a900473ffffffffffffffffffffffffffffffffffffffff1673ffffffffffffffffffffffffffffffffffffffff166367561d93826040518263ffffffff1660e01b81526004016200057c919062000972565b600060405180830381600087803b1580156200059757600080fd5b505af1158015620005ac573d6000803e3d6000fd5b50505050806000808773ffffffffffffffffffffffffffffffffffffffff1673ffffffffffffffffffffffffffffffffffffffff16815260200190815260200160002060008673ffffffffffffffffffffffffffffffffffffffff1673ffffffffffffffffffffffffffffffffffffffff16815260200190815260200160002060006101000a81548173ffffffffffffffffffffffffffffffffffffffff021916908373ffffffffffffffffffffffffffffffffffffffff160217905550806000808673ffffffffffffffffffffffffffffffffffffffff1673ffffffffffffffffffffffffffffffffffffffff16815260200190815260200160002060008773ffffffffffffffffffffffffffffffffffffffff1673ffffffffffffffffffffffffffffffffffffffff16815260200190815260200160002060006101000a81548173ffffffffffffffffffffffffffffffffffffffff021916908373ffffffffffffffffffffffffffffffffffffffff16021790555060008573ffffffffffffffffffffffffffffffffffffffff166306fdde036040518163ffffffff1660e01b8152600401600060405180830381865afa15801562000772573d6000803e3d6000fd5b505050506040513d6000823e3d601f19601f820116820180604052508101906200079d919062000dc2565b905060008573ffffffffffffffffffffffffffffffffffffffff166306fdde036040518163ffffffff1660e01b8152600401600060405180830381865afa158015620007ed573d6000803e3d6000fd5b505050506040513d6000823e3d601f19601f8201168201806040525081019062000818919062000dc2565b9050806040516200082a919062000e60565b60405180910390208260405162000842919062000e60565b60405180910390207fd2b6214e0dfc2bc5cb2e4eb6bf3b3b4ab7b71f56bf550c1953d1d47c7647c832856040516200087b919062000972565b60405180910390a38283945094505050509250929050565b611e7c8062000e7a83390190565b6000604051905090565b600080fd5b600080fd5b600073ffffffffffffffffffffffffffffffffffffffff82169050919050565b6000620008e282620008b5565b9050919050565b620008f481620008d5565b81146200090057600080fd5b50565b6000813590506200091481620008e9565b92915050565b60008060408385031215620009345762000933620008ab565b5b6000620009448582860162000903565b9250506020620009578582860162000903565b9150509250929050565b6200096c81620008d5565b82525050565b600060208201905062000989600083018462000961565b92915050565b6000819050919050565b6000620009ba620009b4620009ae84620008b5565b6200098f565b620008b5565b9050919050565b6000620009ce8262000999565b9050919050565b6000620009e282620009c1565b9050919050565b620009f481620009d5565b82525050565b600060208201905062000a116000830184620009e9565b92915050565b600062000a2482620009c1565b9050919050565b62000a368162000a17565b82525050565b600060408201905062000a53600083018562000a2b565b62000a62602083018462000961565b9392505050565b600082825260208201905092915050565b7f506f6f6c20616c72656164792065786973747321210000000000000000000000600082015250565b600062000ab260158362000a69565b915062000abf8262000a7a565b602082019050919050565b6000602082019050818103600083015262000ae58162000aa3565b9050919050565b7f746f6b656e20616464726573736573206e65656420746f20626520756e69717560008201527f6500000000000000000000000000000000000000000000000000000000000000602082015250565b600062000b4a60218362000a69565b915062000b578262000aec565b604082019050919050565b6000602082019050818103600083015262000b7d8162000b3b565b9050919050565b7f496e76616c696420546f6b656e20416464726573730000000000000000000000600082015250565b600062000bbc60158362000a69565b915062000bc98262000b84565b602082019050919050565b6000602082019050818103600083015262000bef8162000bad565b9050919050565b600060808201905062000c0d600083018762000961565b62000c1c602083018662000961565b62000c2b604083018562000961565b62000c3a6060830184620009e9565b95945050505050565b600080fd5b600080fd5b6000601f19601f8301169050919050565b7f4e487b7100000000000000000000000000000000000000000000000000000000600052604160045260246000fd5b62000c988262000c4d565b810181811067ffffffffffffffff8211171562000cba5762000cb962000c5e565b5b80604052505050565b600062000ccf620008a1565b905062000cdd828262000c8d565b919050565b600067ffffffffffffffff82111562000d005762000cff62000c5e565b5b62000d0b8262000c4d565b9050602081019050919050565b60005b8381101562000d3857808201518184015260208101905062000d1b565b60008484015250505050565b600062000d5b62000d558462000ce2565b62000cc3565b90508281526020810184848401111562000d7a5762000d7962000c48565b5b62000d8784828562000d18565b509392505050565b600082601f83011262000da75762000da662000c43565b5b815162000db984826020860162000d44565b91505092915050565b60006020828403121562000ddb5762000dda620008ab565b5b600082015167ffffffffffffffff81111562000dfc5762000dfb620008b0565b5b62000e0a8482850162000d8f565b91505092915050565b600081519050919050565b600081905092915050565b600062000e368262000e13565b62000e42818562000e1e565b935062000e5481856020860162000d18565b80840191505092915050565b600062000e6e828462000e29565b91508190509291505056fe60806040523480156200001157600080fd5b5060405162001e7c38038062001e7c8339818101604052810190620000379190620001fc565b600160008190555083600160006101000a81548173ffffffffffffffffffffffffffffffffffffffff021916908373ffffffffffffffffffffffffffffffffffffffff16021790555082600260006101000a81548173ffffffffffffffffffffffffffffffffffffffff021916908373ffffffffffffffffffffffffffffffffffffffff16021790555081600560006101000a81548173ffffffffffffffffffffffffffffffffffffffff021916908373ffffffffffffffffffffffffffffffffffffffff16021790555080600660006101000a81548173ffffffffffffffffffffffffffffffffffffffff021916908373ffffffffffffffffffffffffffffffffffffffff160217905550505050506200026e565b600080fd5b600073ffffffffffffffffffffffffffffffffffffffff82169050919050565b60006200017f8262000152565b9050919050565b620001918162000172565b81146200019d57600080fd5b50565b600081519050620001b18162000186565b92915050565b6000620001c48262000172565b9050919050565b620001d681620001b7565b8114620001e257600080fd5b50565b600081519050620001f681620001cb565b92915050565b600080600080608085870312156200021957620002186200014d565b5b60006200022987828801620001a0565b94505060206200023c87828801620001a0565b93505060406200024f87828801620001a0565b92505060606200026287828801620001e5565b91505092959194509250565b611bfe806200027e6000396000f3fe608060405234801561001057600080fd5b50600436106100ea5760003560e01c80638da5cb5b1161008c5780639cd441da116100665780639cd441da14610240578063c196ca8c1461025c578063d21220a71461027a578063fcab435014610298576100ea565b80638da5cb5b146101d357806390dc67e6146101f15780639c8f9f231461020f576100ea565b80635a76f25e116100c85780635a76f25e1461015b5780635c0b9a2b146101795780636f26a71014610197578063768aebde146101b5576100ea565b806325be124e146100ef5780632b7f09231461010d5780633e3c767f1461013d575b600080fd5b6100f76102b6565b6040516101049190611476565b60405180910390f35b6101276004803603810190610122919061150a565b6102dc565b604051610134919061156c565b60405180910390f35b6101456108c1565b6040516101529190611596565b60405180910390f35b6101636108eb565b604051610170919061156c565b60405180910390f35b6101816108f1565b60405161018e919061156c565b60405180910390f35b61019f6108f7565b6040516101ac9190611596565b60405180910390f35b6101bd610921565b6040516101ca919061156c565b60405180910390f35b6101db610926565b6040516101e89190611596565b60405180910390f35b6101f961094c565b604051610206919061156c565b60405180910390f35b610229600480360381019061022491906115b1565b610956565b6040516102379291906115de565b60405180910390f35b61025a60048036038101906102559190611607565b610ccf565b005b61026461133b565b6040516102719190611668565b60405180910390f35b610282611361565b60405161028f9190611476565b60405180910390f35b6102a0611387565b6040516102ad919061156c565b60405180910390f35b600260009054906101000a900473ffffffffffffffffffffffffffffffffffffffff1681565b60006102e6611391565b60008411610329576040517f08c379a0000000000000000000000000000000000000000000000000000000008152600401610320906116e0565b60405180910390fd5b600160009054906101000a900473ffffffffffffffffffffffffffffffffffffffff1673ffffffffffffffffffffffffffffffffffffffff168373ffffffffffffffffffffffffffffffffffffffff1614806103d25750600260009054906101000a900473ffffffffffffffffffffffffffffffffffffffff1673ffffffffffffffffffffffffffffffffffffffff168373ffffffffffffffffffffffffffffffffffffffff16145b610411576040517f08c379a00000000000000000000000000000000000000000000000000000000081526004016104089061174c565b60405180910390fd5b600160009054906101000a900473ffffffffffffffffffffffffffffffffffffffff1673ffffffffffffffffffffffffffffffffffffffff168273ffffffffffffffffffffffffffffffffffffffff1614806104ba5750600260009054906101000a900473ffffffffffffffffffffffffffffffffffffffff1673ffffffffffffffffffffffffffffffffffffffff168273ffffffffffffffffffffffffffffffffffffffff16145b6104f9576040517f08c379a00000000000000000000000000000000000000000000000000000000081526004016104f0906117b8565b60405180910390fd5b8173ffffffffffffffffffffffffffffffffffffffff168373ffffffffffffffffffffffffffffffffffffffff1603610567576040517f08c379a000000000000000000000000000000000000000000000000000000000815260040161055e90611824565b60405180910390fd5b600083905060008390506000600160009054906101000a900473ffffffffffffffffffffffffffffffffffffffff1673ffffffffffffffffffffffffffffffffffffffff168673ffffffffffffffffffffffffffffffffffffffff16146105d0576004546105d4565b6003545b90506000600160009054906101000a900473ffffffffffffffffffffffffffffffffffffffff1673ffffffffffffffffffffffffffffffffffffffff168773ffffffffffffffffffffffffffffffffffffffff161461063557600354610639565b6004545b90508088836106489190611873565b61065291906118a7565b818961065e91906118a7565b111561069f576040517f08c379a000000000000000000000000000000000000000000000000000000000815260040161069690611935565b60405180910390fd5b8373ffffffffffffffffffffffffffffffffffffffff166323b872dd33308b6040518463ffffffff1660e01b81526004016106dc93929190611955565b6020604051808303816000875af11580156106fb573d6000803e3d6000fd5b505050506040513d601f19601f8201168201806040525081019061071f91906119c4565b5060006103e8601e6103e861073491906119f1565b8a61073f91906118a7565b6107499190611a54565b905080836107579190611873565b828261076391906118a7565b61076d9190611a54565b95508373ffffffffffffffffffffffffffffffffffffffff1663a9059cbb33886040518363ffffffff1660e01b81526004016107aa929190611a85565b6020604051808303816000875af11580156107c9573d6000803e3d6000fd5b505050506040513d601f19601f820116820180604052508101906107ed91906119c4565b50600160009054906101000a900473ffffffffffffffffffffffffffffffffffffffff1673ffffffffffffffffffffffffffffffffffffffff168873ffffffffffffffffffffffffffffffffffffffff160361087a5788600360008282546108559190611873565b92505081905550856004600082825461086e91906119f1565b925050819055506108ad565b886004600082825461088c9190611873565b9250508190555085600360008282546108a591906119f1565b925050819055505b50505050506108ba6113d7565b9392505050565b6000600260009054906101000a900473ffffffffffffffffffffffffffffffffffffffff16905090565b60035481565b60045481565b6000600160009054906101000a900473ffffffffffffffffffffffffffffffffffffffff16905090565b601e81565b600560009054906101000a900473ffffffffffffffffffffffffffffffffffffffff1681565b6000600354905090565b600080610961611391565b6000600660009054906101000a900473ffffffffffffffffffffffffffffffffffffffff1673ffffffffffffffffffffffffffffffffffffffff166318160ddd6040518163ffffffff1660e01b8152600401602060405180830381865afa1580156109d0573d6000803e3d6000fd5b505050506040513d601f19601f820116820180604052508101906109f49190611ac3565b905080841115610a39576040517f08c379a0000000000000000000000000000000000000000000000000000000008152600401610a30906116e0565b60405180910390fd5b60008403610a7c576040517f08c379a0000000000000000000000000000000000000000000000000000000008152600401610a7390611b3c565b60405180910390fd5b60008160035486610a8d91906118a7565b610a979190611a54565b905060008260045487610aaa91906118a7565b610ab49190611a54565b9050600660009054906101000a900473ffffffffffffffffffffffffffffffffffffffff1673ffffffffffffffffffffffffffffffffffffffff16639dc29fac33886040518363ffffffff1660e01b8152600401610b13929190611a85565b600060405180830381600087803b158015610b2d57600080fd5b505af1158015610b41573d6000803e3d6000fd5b50505050600160009054906101000a900473ffffffffffffffffffffffffffffffffffffffff1673ffffffffffffffffffffffffffffffffffffffff1663a9059cbb33846040518363ffffffff1660e01b8152600401610ba2929190611a85565b6020604051808303816000875af1158015610bc1573d6000803e3d6000fd5b505050506040513d601f19601f82011682018060405250810190610be591906119c4565b50600260009054906101000a900473ffffffffffffffffffffffffffffffffffffffff1673ffffffffffffffffffffffffffffffffffffffff1663a9059cbb33836040518363ffffffff1660e01b8152600401610c43929190611a85565b6020604051808303816000875af1158015610c62573d6000803e3d6000fd5b505050506040513d601f19601f82011682018060405250810190610c8691906119c4565b508160036000828254610c9991906119f1565b925050819055508060046000828254610cb291906119f1565b92505081905550818194509450505050610cca6113d7565b915091565b610cd7611391565b60008214158015610ce9575060008114155b610d28576040517f08c379a0000000000000000000000000000000000000000000000000000000008152600401610d1f906116e0565b60405180910390fd5b6000600160009054906101000a900473ffffffffffffffffffffffffffffffffffffffff1673ffffffffffffffffffffffffffffffffffffffff166370a08231306040518263ffffffff1660e01b8152600401610d859190611596565b602060405180830381865afa158015610da2573d6000803e3d6000fd5b505050506040513d601f19601f82011682018060405250810190610dc69190611ac3565b90506000600260009054906101000a900473ffffffffffffffffffffffffffffffffffffffff1673ffffffffffffffffffffffffffffffffffffffff166370a08231306040518263ffffffff1660e01b8152600401610e259190611596565b602060405180830381865afa158015610e42573d6000803e3d6000fd5b505050506040513d601f19601f82011682018060405250810190610e669190611ac3565b905060008490506000849050600084148015610e825750600083145b1561107e57600160009054906101000a900473ffffffffffffffffffffffffffffffffffffffff1673ffffffffffffffffffffffffffffffffffffffff166323b872dd3330896040518463ffffffff1660e01b8152600401610ee693929190611955565b6020604051808303816000875af1158015610f05573d6000803e3d6000fd5b505050506040513d601f19601f82011682018060405250810190610f2991906119c4565b50600260009054906101000a900473ffffffffffffffffffffffffffffffffffffffff1673ffffffffffffffffffffffffffffffffffffffff166323b872dd3330886040518463ffffffff1660e01b8152600401610f8993929190611955565b6020604051808303816000875af1158015610fa8573d6000803e3d6000fd5b505050506040513d601f19601f82011682018060405250810190610fcc91906119c4565b5085600381905550846004819055506000610fe787876113e1565b9050600660009054906101000a900473ffffffffffffffffffffffffffffffffffffffff1673ffffffffffffffffffffffffffffffffffffffff166340c10f1933836040518363ffffffff1660e01b8152600401611046929190611a85565b600060405180830381600087803b15801561106057600080fd5b505af1158015611074573d6000803e3d6000fd5b505050505061132b565b60006003546004548461109191906118a7565b61109b9190611a54565b90508082106110ac57809150611113565b6000600454600354846110bf91906118a7565b6110c99190611a54565b90508084101561110e576040517f08c379a000000000000000000000000000000000000000000000000000000000815260040161110590611ba8565b60405180910390fd5b809350505b600160009054906101000a900473ffffffffffffffffffffffffffffffffffffffff1673ffffffffffffffffffffffffffffffffffffffff166323b872dd3330866040518463ffffffff1660e01b815260040161117293929190611955565b6020604051808303816000875af1158015611191573d6000803e3d6000fd5b505050506040513d601f19601f820116820180604052508101906111b591906119c4565b50600260009054906101000a900473ffffffffffffffffffffffffffffffffffffffff1673ffffffffffffffffffffffffffffffffffffffff166323b872dd3330856040518463ffffffff1660e01b815260040161121593929190611955565b6020604051808303816000875af1158015611234573d6000803e3d6000fd5b505050506040513d601f19601f8201168201806040525081019061125891906119c4565b50826003600082825461126b9190611873565b9250508190555081600460008282546112849190611873565b92505081905550600061129784846113e1565b9050600660009054906101000a900473ffffffffffffffffffffffffffffffffffffffff1673ffffffffffffffffffffffffffffffffffffffff166340c10f1933836040518363ffffffff1660e01b81526004016112f6929190611a85565b600060405180830381600087803b15801561131057600080fd5b505af1158015611324573d6000803e3d6000fd5b5050505050505b505050506113376113d7565b5050565b600660009054906101000a900473ffffffffffffffffffffffffffffffffffffffff1681565b600160009054906101000a900473ffffffffffffffffffffffffffffffffffffffff1681565b6000600454905090565b6002600054036113cd576040517f3ee5aeb500000000000000000000000000000000000000000000000000000000815260040160405180910390fd5b6002600081905550565b6001600081905550565b600081836113ef9190611873565b905092915050565b600073ffffffffffffffffffffffffffffffffffffffff82169050919050565b6000819050919050565b600061143c611437611432846113f7565b611417565b6113f7565b9050919050565b600061144e82611421565b9050919050565b600061146082611443565b9050919050565b61147081611455565b82525050565b600060208201905061148b6000830184611467565b92915050565b600080fd5b6000819050919050565b6114a981611496565b81146114b457600080fd5b50565b6000813590506114c6816114a0565b92915050565b60006114d7826113f7565b9050919050565b6114e7816114cc565b81146114f257600080fd5b50565b600081359050611504816114de565b92915050565b60008060006060848603121561152357611522611491565b5b6000611531868287016114b7565b9350506020611542868287016114f5565b9250506040611553868287016114f5565b9150509250925092565b61156681611496565b82525050565b6000602082019050611581600083018461155d565b92915050565b611590816114cc565b82525050565b60006020820190506115ab6000830184611587565b92915050565b6000602082840312156115c7576115c6611491565b5b60006115d5848285016114b7565b91505092915050565b60006040820190506115f3600083018561155d565b611600602083018461155d565b9392505050565b6000806040838503121561161e5761161d611491565b5b600061162c858286016114b7565b925050602061163d858286016114b7565b9150509250929050565b600061165282611443565b9050919050565b61166281611647565b82525050565b600060208201905061167d6000830184611659565b92915050565b600082825260208201905092915050565b7f496e76616c696420416d6f756e74000000000000000000000000000000000000600082015250565b60006116ca600e83611683565b91506116d582611694565b602082019050919050565b600060208201905081810360008301526116f9816116bd565b9050919050565b7f496e76616c696420496e70757420546f6b656e00000000000000000000000000600082015250565b6000611736601383611683565b915061174182611700565b602082019050919050565b6000602082019050818103600083015261176581611729565b9050919050565b7f496e76616c6964204f757470757420546f6b656e000000000000000000000000600082015250565b60006117a2601483611683565b91506117ad8261176c565b602082019050919050565b600060208201905081810360008301526117d181611795565b9050919050565b7f43616e7420737761702073616d6520746f6b656e730000000000000000000000600082015250565b600061180e601583611683565b9150611819826117d8565b602082019050919050565b6000602082019050818103600083015261183d81611801565b9050919050565b7f4e487b7100000000000000000000000000000000000000000000000000000000600052601160045260246000fd5b600061187e82611496565b915061188983611496565b92508282019050808211156118a1576118a0611844565b5b92915050565b60006118b282611496565b91506118bd83611496565b92508282026118cb81611496565b915082820484148315176118e2576118e1611844565b5b5092915050565b7f537761702077696c6c20627265616b2074686520496e76617269616e74000000600082015250565b600061191f601d83611683565b915061192a826118e9565b602082019050919050565b6000602082019050818103600083015261194e81611912565b9050919050565b600060608201905061196a6000830186611587565b6119776020830185611587565b611984604083018461155d565b949350505050565b60008115159050919050565b6119a18161198c565b81146119ac57600080fd5b50565b6000815190506119be81611998565b92915050565b6000602082840312156119da576119d9611491565b5b60006119e8848285016119af565b91505092915050565b60006119fc82611496565b9150611a0783611496565b9250828203905081811115611a1f57611a1e611844565b5b92915050565b7f4e487b7100000000000000000000000000000000000000000000000000000000600052601260045260246000fd5b6000611a5f82611496565b9150611a6a83611496565b925082611a7a57611a79611a25565b5b828204905092915050565b6000604082019050611a9a6000830185611587565b611aa7602083018461155d565b9392505050565b600081519050611abd816114a0565b92915050565b600060208284031215611ad957611ad8611491565b5b6000611ae784828501611aae565b91505092915050565b7f616d6f756e742063616e74206265203000000000000000000000000000000000600082015250565b6000611b26601083611683565b9150611b3182611af0565b602082019050919050565b60006020820190508181036000830152611b5581611b19565b9050919050565b7f496e76616c696420526174696f00000000000000000000000000000000000000600082015250565b6000611b92600d83611683565b9150611b9d82611b5c565b602082019050919050565b60006020820190508181036000830152611bc181611b85565b905091905056fea2646970667358221220366d8b39703893aa042b03ff17f1abd2b9704af0f0600f3e1dd859a1a88c928a64736f6c63430008180033a2646970667358221220ed55eb3286fd6415a7bc1d5ec035be8f0719e8701cabe40985431eac47f331cb64736f6c63430008180033",
  "linkReferences": {},
  "deployedLinkReferences": {}
}